{
  "contractName": "blokUnion",
  "abi": [
    {
      "constant": true,
      "inputs": [],
      "name": "contractOn",
      "outputs": [
        {
          "name": "",
          "type": "bool"
        }
      ],
      "payable": false,
      "stateMutability": "view",
      "type": "function"
    },
    {
      "inputs": [],
      "payable": false,
      "stateMutability": "nonpayable",
      "type": "constructor"
    },
    {
      "anonymous": false,
      "inputs": [
        {
          "indexed": false,
          "name": "account",
          "type": "address"
        },
        {
          "indexed": false,
          "name": "amount",
          "type": "uint256"
        }
      ],
      "name": "DemandDeposit",
      "type": "event"
    },
    {
      "anonymous": false,
      "inputs": [
        {
          "indexed": false,
          "name": "account",
          "type": "address"
        },
        {
          "indexed": false,
          "name": "amount",
          "type": "uint256"
        }
      ],
      "name": "DemandWithdrawl",
      "type": "event"
    },
    {
      "anonymous": false,
      "inputs": [
        {
          "indexed": false,
          "name": "requestor",
          "type": "address"
        },
        {
          "indexed": false,
          "name": "loanAmount",
          "type": "uint256"
        },
        {
          "indexed": false,
          "name": "purpose",
          "type": "string"
        }
      ],
      "name": "LoanRequest",
      "type": "event"
    },
    {
      "anonymous": false,
      "inputs": [
        {
          "indexed": false,
          "name": "borrower",
          "type": "address"
        },
        {
          "indexed": false,
          "name": "approver",
          "type": "address"
        },
        {
          "indexed": false,
          "name": "maturityDate",
          "type": "uint256"
        }
      ],
      "name": "LoanIssued",
      "type": "event"
    },
    {
      "anonymous": false,
      "inputs": [
        {
          "indexed": false,
          "name": "borrower",
          "type": "address"
        },
        {
          "indexed": false,
          "name": "approver",
          "type": "address"
        },
        {
          "indexed": false,
          "name": "reason",
          "type": "string"
        }
      ],
      "name": "LoanDeclined",
      "type": "event"
    },
    {
      "anonymous": false,
      "inputs": [
        {
          "indexed": false,
          "name": "borrower",
          "type": "address"
        },
        {
          "indexed": false,
          "name": "amount",
          "type": "uint256"
        }
      ],
      "name": "LoanPayment",
      "type": "event"
    },
    {
      "anonymous": false,
      "inputs": [
        {
          "indexed": false,
          "name": "borrower",
          "type": "address"
        }
      ],
      "name": "LoanRepaid",
      "type": "event"
    },
    {
      "anonymous": false,
      "inputs": [
        {
          "indexed": false,
          "name": "approver",
          "type": "address"
        }
      ],
      "name": "ApproverElected",
      "type": "event"
    },
    {
      "constant": false,
      "inputs": [],
      "name": "turnOffContract",
      "outputs": [],
      "payable": false,
      "stateMutability": "nonpayable",
      "type": "function"
    },
    {
      "constant": false,
      "inputs": [],
      "name": "turnOnContract",
      "outputs": [],
      "payable": false,
      "stateMutability": "nonpayable",
      "type": "function"
    },
    {
      "constant": false,
      "inputs": [],
      "name": "kill",
      "outputs": [],
      "payable": false,
      "stateMutability": "nonpayable",
      "type": "function"
    },
    {
      "constant": false,
      "inputs": [],
      "name": "deposit",
      "outputs": [
        {
          "name": "",
          "type": "uint256"
        }
      ],
      "payable": true,
      "stateMutability": "payable",
      "type": "function"
    },
    {
      "constant": false,
      "inputs": [
        {
          "name": "_withdrawAmount",
          "type": "uint256"
        }
      ],
      "name": "withdraw",
      "outputs": [
        {
          "name": "",
          "type": "uint256"
        }
      ],
      "payable": false,
      "stateMutability": "nonpayable",
      "type": "function"
    },
    {
      "constant": true,
      "inputs": [],
      "name": "getDemandBalance",
      "outputs": [
        {
          "name": "",
          "type": "uint256"
        }
      ],
      "payable": false,
      "stateMutability": "view",
      "type": "function"
    },
    {
      "constant": false,
      "inputs": [
        {
          "name": "_amount",
          "type": "uint256"
        },
        {
          "name": "_purpose",
          "type": "string"
        }
      ],
      "name": "requestLoan",
      "outputs": [],
      "payable": false,
      "stateMutability": "nonpayable",
      "type": "function"
    },
    {
      "constant": true,
      "inputs": [
        {
          "name": "_address",
          "type": "address"
        }
      ],
      "name": "getLoan",
      "outputs": [
        {
          "name": "borrower",
          "type": "address"
        },
        {
          "name": "loanAmount",
          "type": "uint256"
        },
        {
          "name": "purpose",
          "type": "string"
        },
        {
          "name": "status",
          "type": "uint8"
        },
        {
          "name": "approver",
          "type": "address"
        },
        {
          "name": "balance",
          "type": "uint256"
        },
        {
          "name": "issueDate",
          "type": "uint256"
        },
        {
          "name": "maturityDate",
          "type": "uint256"
        },
        {
          "name": "apr",
          "type": "uint256"
        }
      ],
      "payable": false,
      "stateMutability": "view",
      "type": "function"
    },
    {
      "constant": false,
      "inputs": [
        {
          "name": "_approver",
          "type": "address"
        }
      ],
      "name": "electApprover",
      "outputs": [],
      "payable": false,
      "stateMutability": "nonpayable",
      "type": "function"
    },
    {
      "constant": false,
      "inputs": [
        {
          "name": "_borrower",
          "type": "address"
        },
        {
          "name": "_rate",
          "type": "uint256"
        }
      ],
      "name": "approveLoan",
      "outputs": [],
      "payable": false,
      "stateMutability": "nonpayable",
      "type": "function"
    }
  ],
  "bytecode": "0x608060405260016000806101000a81548160ff02191690831515021790555034801561002a57600080fd5b5033600360006101000a81548173ffffffffffffffffffffffffffffffffffffffff021916908373ffffffffffffffffffffffffffffffffffffffff16021790555061151a8061007b6000396000f3006080604052600436106100af576000357c0100000000000000000000000000000000000000000000000000000000900463ffffffff1680630fb73e39146100b45780631450fc60146100cb578063239fbce7146100e25780632e1a7d4d1461010d57806333481fc91461014e57806341c0e1b5146102a8578063495fef24146102bf5780636c79e167146103025780639f63f5c314610375578063d0e30db0146103c2578063eb1c7bf2146103e0575b600080fd5b3480156100c057600080fd5b506100c961040f565b005b3480156100d757600080fd5b506100e0610487565b005b3480156100ee57600080fd5b506100f76104ff565b6040518082815260200191505060405180910390f35b34801561011957600080fd5b5061013860048036038101908080359060200190929190505050610560565b6040518082815260200191505060405180910390f35b34801561015a57600080fd5b5061018f600480360381019080803573ffffffffffffffffffffffffffffffffffffffff1690602001909291905050506107ae565b604051808a73ffffffffffffffffffffffffffffffffffffffff1673ffffffffffffffffffffffffffffffffffffffff168152602001898152602001806020018860048111156101db57fe5b60ff1681526020018773ffffffffffffffffffffffffffffffffffffffff1673ffffffffffffffffffffffffffffffffffffffff168152602001868152602001858152602001848152602001838152602001828103825289818151815260200191508051906020019080838360005b8381101561026557808201518184015260208101905061024a565b50505050905090810190601f1680156102925780820380516001836020036101000a031916815260200191505b509a505050505050505050505060405180910390f35b3480156102b457600080fd5b506102bd61094e565b005b3480156102cb57600080fd5b50610300600480360381019080803573ffffffffffffffffffffffffffffffffffffffff1690602001909291905050506109e5565b005b34801561030e57600080fd5b5061037360048036038101908080359060200190929190803590602001908201803590602001908080601f0160208091040260200160405190810160405280939291908181526020018383808284378201915050505050509192919290505050610b19565b005b34801561038157600080fd5b506103c0600480360381019080803573ffffffffffffffffffffffffffffffffffffffff16906020019092919080359060200190929190505050610f29565b005b6103ca611280565b6040518082815260200191505060405180910390f35b3480156103ec57600080fd5b506103f5611437565b604051808215151515815260200191505060405180910390f35b600360009054906101000a900473ffffffffffffffffffffffffffffffffffffffff1673ffffffffffffffffffffffffffffffffffffffff163373ffffffffffffffffffffffffffffffffffffffff1614151561046b57600080fd5b60016000806101000a81548160ff021916908315150217905550565b600360009054906101000a900473ffffffffffffffffffffffffffffffffffffffff1673ffffffffffffffffffffffffffffffffffffffff163373ffffffffffffffffffffffffffffffffffffffff161415156104e357600080fd5b60008060006101000a81548160ff021916908315150217905550565b60008060009054906101000a900460ff16151561051b57600080fd5b600160003373ffffffffffffffffffffffffffffffffffffffff1673ffffffffffffffffffffffffffffffffffffffff16815260200190815260200160002054905090565b60008060009054906101000a900460ff16151561057c57600080fd5b81600160003373ffffffffffffffffffffffffffffffffffffffff1673ffffffffffffffffffffffffffffffffffffffff16815260200190815260200160002054101515156105ca57600080fd5b600160003373ffffffffffffffffffffffffffffffffffffffff1673ffffffffffffffffffffffffffffffffffffffff1681526020019081526020016000205482600160003373ffffffffffffffffffffffffffffffffffffffff1673ffffffffffffffffffffffffffffffffffffffff168152602001908152602001600020540310151561065857600080fd5b81600160003373ffffffffffffffffffffffffffffffffffffffff1673ffffffffffffffffffffffffffffffffffffffff168152602001908152602001600020600082825403925050819055503373ffffffffffffffffffffffffffffffffffffffff166108fc839081150290604051600060405180830381858888f193505050501580156106eb573d6000803e3d6000fd5b50816005600082825403925050819055507ffa1120df9f23b6c6e222cdc3732928533d45ac27a8c0834eab9d378fa4121cd03383604051808373ffffffffffffffffffffffffffffffffffffffff1673ffffffffffffffffffffffffffffffffffffffff1681526020018281526020019250505060405180910390a1600160003373ffffffffffffffffffffffffffffffffffffffff1673ffffffffffffffffffffffffffffffffffffffff168152602001908152602001600020549050919050565b600080606060008060008060008060008060009054906101000a900460ff1615156107d857600080fd5b600260008c73ffffffffffffffffffffffffffffffffffffffff1673ffffffffffffffffffffffffffffffffffffffff16815260200190815260200160002090508060000160009054906101000a900473ffffffffffffffffffffffffffffffffffffffff168160010154826002018360030160009054906101000a900460ff168460030160019054906101000a900473ffffffffffffffffffffffffffffffffffffffff168560040154866005015487600601548860070154868054600181600116156101000203166002900480601f0160208091040260200160405190810160405280929190818152602001828054600181600116156101000203166002900480156109275780601f106108fc57610100808354040283529160200191610927565b820191906000526020600020905b81548152906001019060200180831161090a57829003601f168201915b50505050509650995099509950995099509950995099509950509193959799909294969850565b600360009054906101000a900473ffffffffffffffffffffffffffffffffffffffff1673ffffffffffffffffffffffffffffffffffffffff163373ffffffffffffffffffffffffffffffffffffffff161415156109aa57600080fd5b600360009054906101000a900473ffffffffffffffffffffffffffffffffffffffff1673ffffffffffffffffffffffffffffffffffffffff16ff5b6000809054906101000a900460ff1615156109ff57600080fd5b600360009054906101000a900473ffffffffffffffffffffffffffffffffffffffff1673ffffffffffffffffffffffffffffffffffffffff163373ffffffffffffffffffffffffffffffffffffffff16141515610a5b57600080fd5b6001600460008373ffffffffffffffffffffffffffffffffffffffff1673ffffffffffffffffffffffffffffffffffffffff16815260200190815260200160002060006101000a81548160ff0219169083151502179055507f1dc56afcb6b7606ba1c8d4d8d3ba9f323357697a3a3f2dd2065919f04b9a894481604051808273ffffffffffffffffffffffffffffffffffffffff1673ffffffffffffffffffffffffffffffffffffffff16815260200191505060405180910390a150565b6000809054906101000a900460ff161515610b3357600080fd5b6000600260003373ffffffffffffffffffffffffffffffffffffffff1673ffffffffffffffffffffffffffffffffffffffff16815260200190815260200160002060010154141515610b8457600080fd5b610120604051908101604052803373ffffffffffffffffffffffffffffffffffffffff16815260200183815260200182815260200160016004811115610bc657fe5b8152602001600073ffffffffffffffffffffffffffffffffffffffff1681526020016000815260200160008152602001600081526020016000815250600260003373ffffffffffffffffffffffffffffffffffffffff1673ffffffffffffffffffffffffffffffffffffffff16815260200190815260200160002060008201518160000160006101000a81548173ffffffffffffffffffffffffffffffffffffffff021916908373ffffffffffffffffffffffffffffffffffffffff160217905550602082015181600101556040820151816002019080519060200190610cae929190611449565b5060608201518160030160006101000a81548160ff02191690836004811115610cd357fe5b021790555060808201518160030160016101000a81548173ffffffffffffffffffffffffffffffffffffffff021916908373ffffffffffffffffffffffffffffffffffffffff16021790555060a0820151816004015560c0820151816005015560e0820151816006015561010082015181600701559050507fcdfc48bab39e805257a8aefeaca4ebc4a0238e3d1929c685e3ba984d0ae6e9ef600260003373ffffffffffffffffffffffffffffffffffffffff1673ffffffffffffffffffffffffffffffffffffffff16815260200190815260200160002060000160009054906101000a900473ffffffffffffffffffffffffffffffffffffffff16600260003373ffffffffffffffffffffffffffffffffffffffff1673ffffffffffffffffffffffffffffffffffffffff16815260200190815260200160002060010154600260003373ffffffffffffffffffffffffffffffffffffffff1673ffffffffffffffffffffffffffffffffffffffff168152602001908152602001600020600201604051808473ffffffffffffffffffffffffffffffffffffffff1673ffffffffffffffffffffffffffffffffffffffff16815260200183815260200180602001828103825283818154600181600116156101000203166002900481526020019150805460018160011615610100020316600290048015610f155780601f10610eea57610100808354040283529160200191610f15565b820191906000526020600020905b815481529060010190602001808311610ef857829003601f168201915b505094505050505060405180910390a15050565b600060011515600460003373ffffffffffffffffffffffffffffffffffffffff1673ffffffffffffffffffffffffffffffffffffffff16815260200190815260200160002060009054906101000a900460ff161515141515610f8a57600080fd5b600260008473ffffffffffffffffffffffffffffffffffffffff1673ffffffffffffffffffffffffffffffffffffffff16815260200190815260200160002090506002600554811515610fd957fe5b0481600101546006540111151515610ff057600080fd5b600160008473ffffffffffffffffffffffffffffffffffffffff1673ffffffffffffffffffffffffffffffffffffffff168152602001908152602001600020548160010154600160008673ffffffffffffffffffffffffffffffffffffffff1673ffffffffffffffffffffffffffffffffffffffff168152602001908152602001600020540111151561108257600080fd5b6001600481111561108f57fe5b8160030160009054906101000a900460ff1660048111156110ac57fe5b1415156110b857600080fd5b60028160030160006101000a81548160ff021916908360048111156110d957fe5b0217905550338160030160016101000a81548173ffffffffffffffffffffffffffffffffffffffff021916908373ffffffffffffffffffffffffffffffffffffffff160217905550806001015481600401819055504281600501819055506301e13380420181600601819055508181600701819055507f2a2739b1a143745ed1bb646af91335badc687fbb4f4a45ab53ededc8a1a8763b838260030160019054906101000a900473ffffffffffffffffffffffffffffffffffffffff168360060154604051808473ffffffffffffffffffffffffffffffffffffffff1673ffffffffffffffffffffffffffffffffffffffff1681526020018373ffffffffffffffffffffffffffffffffffffffff1673ffffffffffffffffffffffffffffffffffffffff168152602001828152602001935050505060405180910390a180600101546006600082825401925050819055508060010154600160008573ffffffffffffffffffffffffffffffffffffffff1673ffffffffffffffffffffffffffffffffffffffff16815260200190815260200160002060008282540192505081905550505050565b60008060009054906101000a900460ff16151561129c57600080fd5b600160003373ffffffffffffffffffffffffffffffffffffffff1673ffffffffffffffffffffffffffffffffffffffff1681526020019081526020016000205434600160003373ffffffffffffffffffffffffffffffffffffffff1673ffffffffffffffffffffffffffffffffffffffff168152602001908152602001600020540111151561132a57600080fd5b34600160003373ffffffffffffffffffffffffffffffffffffffff1673ffffffffffffffffffffffffffffffffffffffff168152602001908152602001600020600082825401925050819055507f65d1d1b522c4ff7fbc4d9aed40850a732983d8be21ea116346136e556e7d9e593334604051808373ffffffffffffffffffffffffffffffffffffffff1673ffffffffffffffffffffffffffffffffffffffff1681526020018281526020019250505060405180910390a134600560008282540192505081905550600160003373ffffffffffffffffffffffffffffffffffffffff1673ffffffffffffffffffffffffffffffffffffffff16815260200190815260200160002054905090565b6000809054906101000a900460ff1681565b828054600181600116156101000203166002900490600052602060002090601f016020900481019282601f1061148a57805160ff19168380011785556114b8565b828001600101855582156114b8579182015b828111156114b757825182559160200191906001019061149c565b5b5090506114c591906114c9565b5090565b6114eb91905b808211156114e75760008160009055506001016114cf565b5090565b905600a165627a7a7230582047a1d767d8d55fe0cec01c8163df363b8c3ab9ca6af91235df1fdca1581e83db0029",
  "source": "pragma solidity ^0.4.13;\n\n///@title A \"decentralized\" (not really, not yet) credit union\n///@author @crusyn - Chris Rusyniak\n///@notice use at your own risk :)\ncontract blokUnion {\n  ///STATE VARS\n\n  bool public contractOn = true;\n\n  ///@notice demandAccounts are regular deposit accounts at blokUnion\n  mapping (address => uint) private demandAccounts;\n\n  ///@notice loans are where we store our loans, duh.\n  mapping (address => Loan) private loans;\n\n  ///@notice contract owner\n  address owner;\n\n  ///@notice loanApprovers are authorized to approve and decline loan requests.\n  mapping (address => bool) private loanApprovers;\n\n  ///@notice this is the key struct, describes a loan, duh\n  struct Loan {\n    address borrower;\n    uint loanAmount; //Is zero until loan is requested\n    string purpose; //reason for requesting the loans\n    //TODO: can use ipfs later, borrower can upload html describing purpose.\n    LoanStatus status; //status of loan, see LoanStatus struct\n    address approver; //the address of the user that approved this loan\n    uint balance; //the principal + accrued interest - repayments or outstanding amount owed\n    uint issueDate; //when the loan was appoved/issued\n    uint maturityDate; //when the loan should be fully repaid by\n    uint apr; //interest rate in parts per million\n\n  }\n\n  ///@notice this defines the overall workflow\n  enum LoanStatus {\n    NoLoan, //should never happen\n    Requested, //after requestLoan()\n    Issued, //after approveLoan()\n    Declined, //unimplemented\n    Repaid //unimplemented\n  }\n\n  ///@notice this is the total deposits at a current time.  Due to the magic\n  ///or fractional reserve banking this can actually be > that the total ETH\n  ///in the contract.\n  uint totalDeposits;\n\n  ///@notice totalOutstandingLoans should never be greater than one half of totalDeposits\n  uint totalOutstandingLoans;\n\n  ///EVENTS\n\n  event DemandDeposit(address account, uint amount);\n\n  event DemandWithdrawl(address account, uint amount);\n\n  event LoanRequest(address requestor, uint loanAmount, string purpose);\n\n  event LoanIssued(address borrower, address approver, uint maturityDate);\n\n  event LoanDeclined(address borrower, address approver, string reason);\n\n  event LoanPayment(address borrower, uint amount);\n\n  event LoanRepaid(address borrower);\n\n  event ApproverElected(address approver);\n\n  ///MODIFIERS\n\n  modifier onlyOwner() {\n      require (msg.sender == owner);\n      _;\n    }\n\n  modifier onlyApprover() {\n      require (loanApprovers[msg.sender] == true);\n      //emit DebugEvent(msg.sender, 0, 0, 0, loanApprovers[msg.sender], 'approver status');\n      _;\n    }\n\n  modifier contractIsOn(){\n    require(contractOn); _;\n  }\n\n  ///CONSTRUCTOR\n  constructor() public{\n    owner = msg.sender;\n  }\n\n  ///@notice trips circuit breaker, will turn off all functions in this contract\n  ///@dev only the contract owner can exec\n  //TODO: need to write tests for this\n  function turnOffContract() public onlyOwner{\n    contractOn = false;\n  }\n\n  ///@notice releases circuit breaker, will turn off all functions in this contract\n  ///@dev only the contract owner can exec\n  //TODO: need to write tests for this\n  function turnOnContract() public onlyOwner{\n    contractOn = true;\n  }\n\n  ///@notice closes the blokUnion and sends all ETH to owner\n  ///@dev only the contract owner can exec\n  //TODO: need to write tests for this\n  function kill() onlyOwner public{\n    selfdestruct(owner);\n  }\n\n  ///FUNCTIONS\n  ///@notice deposit ether into the blokUnion\n  ///@return the member's balance\n  function deposit() public payable contractIsOn returns(uint){\n    //overflow protect\n    require(demandAccounts[msg.sender] + msg.value > demandAccounts[msg.sender]);\n\n    demandAccounts[msg.sender] += msg.value;\n\n    emit DemandDeposit(msg.sender, msg.value);\n\n    totalDeposits += msg.value;\n\n    return demandAccounts[msg.sender];\n  }\n\n  ///@notice withdraw ether from the blokUnion\n  ///@param _withdrawAmount amount you want to withdraw\n  ///@return the member's remaining balance\n  function withdraw(uint _withdrawAmount) public contractIsOn returns (uint){\n    //make sure there is enough money in the account\n    require(demandAccounts[msg.sender] >= _withdrawAmount);\n\n    //underflow protection\n    require(demandAccounts[msg.sender] - _withdrawAmount < demandAccounts[msg.sender]);\n\n    //remove the money from their balance\n    demandAccounts[msg.sender] -= _withdrawAmount;\n\n    //pay out the ether\n    msg.sender.transfer(_withdrawAmount);\n\n    totalDeposits -= _withdrawAmount;\n\n    emit DemandWithdrawl(msg.sender, _withdrawAmount);\n\n    return demandAccounts[msg.sender];\n  }\n\n  ///@notice get balance of your demand account\n  ///@return the member's balance\n  function getDemandBalance() public view contractIsOn returns (uint){\n    return demandAccounts[msg.sender];\n  }\n\n  ///@notice use this function to request a loan.\n  ///@dev today we only support one loan per account.  This is the first step\n  ///in the lending workflow.\n  ///@param _amount Amount being requested\n  ///@param _purpose The reason for the loan, this will be used by approvers to\n  ///determine if the loan should be approved & issued\n  function requestLoan(uint _amount, string _purpose) public contractIsOn {\n    //we only support one loan per account today, make sure the member is not\n    //attempting to request a loan after one was already requested.\n    require(loans[msg.sender].loanAmount == 0);\n\n    //add the loan to the list, set status to Requested\n    loans[msg.sender] = Loan({\n      borrower: msg.sender,\n      loanAmount: _amount,\n      purpose: _purpose,\n      status: LoanStatus.Requested,\n      approver: 0,\n      balance: 0,\n      issueDate: 0,\n      maturityDate: 0,\n      apr: 0\n      });\n\n    //loans[msg.sender] = loan;\n\n    //let the world know that a loan was requested.\n    emit LoanRequest(loans[msg.sender].borrower, loans[msg.sender].loanAmount, loans[msg.sender].purpose);\n  }\n\n  ///@notice used to be able to examine loans\n  ///@dev relatively harmless, but we should make this accessible only by owners\n  ///and/or approvers\n  ///@param _address loan's borrower address\n  ///@return essentially everything in the loan struct\n  //TODO: implement security: only a loan owner or approver can get loans\n  function getLoan(address _address) public contractIsOn view returns(\n    address borrower,\n    uint loanAmount,\n    string purpose,\n    LoanStatus status,\n    address approver,\n    uint balance,\n    uint issueDate,\n    uint maturityDate,\n    uint apr\n    )\n  {\n    Loan storage loan = loans[_address];\n    return(\n      loan.borrower,\n      loan.loanAmount,\n      loan.purpose, //TODO: can use ipfs later, borrower can upload html describing purpose.\n      loan.status,\n      loan.approver,\n      loan.balance,\n      loan.issueDate,\n      loan.maturityDate,\n      loan.apr\n      );\n  }\n\n  ///@notice elect someone that can approve loans, only the owner can elect an\n  ///approver\n  ///@param _approver address of the person to be elected\n  function electApprover(address _approver) public contractIsOn onlyOwner{\n    loanApprovers[_approver] = true;\n\n    emit ApproverElected(_approver);\n  }\n\n  ///@notice approve a loan, only an approver can approve a loan.\n  ///@param _borrower the borrower you wish to approve.\n  ///@param _rate the rate you assign to the borrower for his/her loan.\n  function approveLoan(address _borrower, uint _rate) public onlyApprover{\n    Loan storage loan = loans[_borrower];\n\n    //make sure totalOutstandingLoans is never be greater than one half of totalDeposits.\n    require(totalOutstandingLoans + loan.loanAmount <= totalDeposits / 2);\n\n    //protect against overflow\n    require(demandAccounts[_borrower] + loan.loanAmount > demandAccounts[_borrower]);\n\n    require(loan.status == LoanStatus.Requested);\n\n    //update loan\n    loan.status = LoanStatus.Issued;\n    loan.approver = msg.sender;\n    loan.balance = loan.loanAmount;\n    loan.issueDate = block.timestamp;\n    loan.maturityDate = block.timestamp + 60*60*24*365;//in seconds since unix epoch;\n    loan.apr = _rate;\n\n\n    emit LoanIssued(_borrower, loan.approver, loan.maturityDate);\n\n    //add to totalOutstandingLoans\n    totalOutstandingLoans += loan.loanAmount;\n\n    //deposit value into borrower's account\n    //this is the magic of a bank.  We are creating money from nothing!!\n    //note... because of fractional reserve banking we can now have more deposits\n    // than ETH in the bank.\n    demandAccounts[_borrower] += loan.loanAmount;\n\n  }\n}\n",
  "sourcePath": "/Users/chrisrusyniak/Code/blokUnion/contracts/blokUnion.sol",
  "compiler": {
    "name": "solc",
    "version": "0.4.24+commit.e67f0147.Emscripten.clang"
  },
  "schemaVersion": "2.0.1",
  "updatedAt": "2018-08-24T15:42:41.940Z"
}