{
  "contractName": "blokUnion",
  "abi": [
    {
      "inputs": [],
      "payable": false,
      "stateMutability": "nonpayable",
      "type": "constructor"
    },
    {
      "anonymous": false,
      "inputs": [
        {
          "indexed": false,
          "name": "account",
          "type": "address"
        },
        {
          "indexed": false,
          "name": "amount",
          "type": "uint256"
        }
      ],
      "name": "DemandDeposit",
      "type": "event"
    },
    {
      "anonymous": false,
      "inputs": [
        {
          "indexed": false,
          "name": "account",
          "type": "address"
        },
        {
          "indexed": false,
          "name": "amount",
          "type": "uint256"
        }
      ],
      "name": "DemandWithdrawl",
      "type": "event"
    },
    {
      "anonymous": false,
      "inputs": [
        {
          "indexed": false,
          "name": "requestor",
          "type": "address"
        },
        {
          "indexed": false,
          "name": "loanAmount",
          "type": "uint256"
        },
        {
          "indexed": false,
          "name": "purpose",
          "type": "string"
        }
      ],
      "name": "LoanRequest",
      "type": "event"
    },
    {
      "anonymous": false,
      "inputs": [
        {
          "indexed": false,
          "name": "borrower",
          "type": "address"
        },
        {
          "indexed": false,
          "name": "approver",
          "type": "address"
        },
        {
          "indexed": false,
          "name": "maturityDate",
          "type": "uint256"
        }
      ],
      "name": "LoanIssued",
      "type": "event"
    },
    {
      "anonymous": false,
      "inputs": [
        {
          "indexed": false,
          "name": "borrower",
          "type": "address"
        },
        {
          "indexed": false,
          "name": "approver",
          "type": "address"
        },
        {
          "indexed": false,
          "name": "reason",
          "type": "string"
        }
      ],
      "name": "LoanDeclined",
      "type": "event"
    },
    {
      "anonymous": false,
      "inputs": [
        {
          "indexed": false,
          "name": "borrower",
          "type": "address"
        },
        {
          "indexed": false,
          "name": "amount",
          "type": "uint256"
        }
      ],
      "name": "LoanPayment",
      "type": "event"
    },
    {
      "anonymous": false,
      "inputs": [
        {
          "indexed": false,
          "name": "borrower",
          "type": "address"
        }
      ],
      "name": "LoanRepaid",
      "type": "event"
    },
    {
      "anonymous": false,
      "inputs": [
        {
          "indexed": false,
          "name": "approver",
          "type": "address"
        }
      ],
      "name": "ApproverElected",
      "type": "event"
    },
    {
      "anonymous": false,
      "inputs": [
        {
          "indexed": false,
          "name": "add",
          "type": "address"
        },
        {
          "indexed": false,
          "name": "add2",
          "type": "address"
        },
        {
          "indexed": false,
          "name": "a",
          "type": "uint256"
        },
        {
          "indexed": false,
          "name": "b",
          "type": "uint256"
        },
        {
          "indexed": false,
          "name": "bo",
          "type": "bool"
        },
        {
          "indexed": false,
          "name": "c",
          "type": "string"
        }
      ],
      "name": "DebugEvent",
      "type": "event"
    },
    {
      "constant": false,
      "inputs": [],
      "name": "deposit",
      "outputs": [
        {
          "name": "",
          "type": "uint256"
        }
      ],
      "payable": true,
      "stateMutability": "payable",
      "type": "function"
    },
    {
      "constant": false,
      "inputs": [
        {
          "name": "_withdrawAmount",
          "type": "uint256"
        }
      ],
      "name": "withdraw",
      "outputs": [
        {
          "name": "",
          "type": "uint256"
        }
      ],
      "payable": false,
      "stateMutability": "nonpayable",
      "type": "function"
    },
    {
      "constant": true,
      "inputs": [],
      "name": "getDemandBalance",
      "outputs": [
        {
          "name": "",
          "type": "uint256"
        }
      ],
      "payable": false,
      "stateMutability": "view",
      "type": "function"
    },
    {
      "constant": false,
      "inputs": [
        {
          "name": "_amount",
          "type": "uint256"
        },
        {
          "name": "_purpose",
          "type": "string"
        }
      ],
      "name": "requestLoan",
      "outputs": [],
      "payable": false,
      "stateMutability": "nonpayable",
      "type": "function"
    },
    {
      "constant": true,
      "inputs": [
        {
          "name": "_address",
          "type": "address"
        }
      ],
      "name": "getLoan",
      "outputs": [
        {
          "name": "borrower",
          "type": "address"
        },
        {
          "name": "loanAmount",
          "type": "uint256"
        },
        {
          "name": "purpose",
          "type": "string"
        },
        {
          "name": "status",
          "type": "uint8"
        },
        {
          "name": "approver",
          "type": "address"
        },
        {
          "name": "balance",
          "type": "uint256"
        },
        {
          "name": "issueDate",
          "type": "uint256"
        },
        {
          "name": "maturityDate",
          "type": "uint256"
        },
        {
          "name": "apr",
          "type": "uint256"
        }
      ],
      "payable": false,
      "stateMutability": "view",
      "type": "function"
    },
    {
      "constant": false,
      "inputs": [
        {
          "name": "_approver",
          "type": "address"
        }
      ],
      "name": "electApprover",
      "outputs": [],
      "payable": false,
      "stateMutability": "nonpayable",
      "type": "function"
    },
    {
      "constant": false,
      "inputs": [
        {
          "name": "_borrower",
          "type": "address"
        },
        {
          "name": "_rate",
          "type": "uint256"
        }
      ],
      "name": "approveLoan",
      "outputs": [],
      "payable": false,
      "stateMutability": "nonpayable",
      "type": "function"
    }
  ],
  "bytecode": "0x608060405234801561001057600080fd5b5033600260006101000a81548173ffffffffffffffffffffffffffffffffffffffff021916908373ffffffffffffffffffffffffffffffffffffffff16021790555061105a806100616000396000f300608060405260043610610083576000357c0100000000000000000000000000000000000000000000000000000000900463ffffffff168063239fbce7146100885780632e1a7d4d146100b357806333481fc9146100f4578063495fef241461024e5780636c79e167146102915780639f63f5c314610304578063d0e30db014610351575b600080fd5b34801561009457600080fd5b5061009d61036f565b6040518082815260200191505060405180910390f35b3480156100bf57600080fd5b506100de600480360381019080803590602001909291905050506103b5565b6040518082815260200191505060405180910390f35b34801561010057600080fd5b50610135600480360381019080803573ffffffffffffffffffffffffffffffffffffffff169060200190929190505050610558565b604051808a73ffffffffffffffffffffffffffffffffffffffff1673ffffffffffffffffffffffffffffffffffffffff1681526020018981526020018060200188600481111561018157fe5b60ff1681526020018773ffffffffffffffffffffffffffffffffffffffff1673ffffffffffffffffffffffffffffffffffffffff168152602001868152602001858152602001848152602001838152602001828103825289818151815260200191508051906020019080838360005b8381101561020b5780820151818401526020810190506101f0565b50505050905090810190601f1680156102385780820380516001836020036101000a031916815260200191505b509a505050505050505050505060405180910390f35b34801561025a57600080fd5b5061028f600480360381019080803573ffffffffffffffffffffffffffffffffffffffff1690602001909291905050506106de565b005b34801561029d57600080fd5b5061030260048036038101908080359060200190929190803590602001908201803590602001908080601f01602080910402602001604051908101604052809392919081815260200183838082843782019150505050505091929192905050506107f8565b005b34801561031057600080fd5b5061034f600480360381019080803573ffffffffffffffffffffffffffffffffffffffff16906020019092919080359060200190929190505050610bee565b005b610359610e7c565b6040518082815260200191505060405180910390f35b60008060003373ffffffffffffffffffffffffffffffffffffffff1673ffffffffffffffffffffffffffffffffffffffff16815260200190815260200160002054905090565b6000816000803373ffffffffffffffffffffffffffffffffffffffff1673ffffffffffffffffffffffffffffffffffffffff168152602001908152602001600020541015151561040457600080fd5b816000803373ffffffffffffffffffffffffffffffffffffffff1673ffffffffffffffffffffffffffffffffffffffff168152602001908152602001600020600082825403925050819055503373ffffffffffffffffffffffffffffffffffffffff166108fc839081150290604051600060405180830381858888f19350505050158015610496573d6000803e3d6000fd5b50816004600082825403925050819055507ffa1120df9f23b6c6e222cdc3732928533d45ac27a8c0834eab9d378fa4121cd03383604051808373ffffffffffffffffffffffffffffffffffffffff1673ffffffffffffffffffffffffffffffffffffffff1681526020018281526020019250505060405180910390a16000803373ffffffffffffffffffffffffffffffffffffffff1673ffffffffffffffffffffffffffffffffffffffff168152602001908152602001600020549050919050565b60008060606000806000806000806000600160008c73ffffffffffffffffffffffffffffffffffffffff1673ffffffffffffffffffffffffffffffffffffffff16815260200190815260200160002090508060000160009054906101000a900473ffffffffffffffffffffffffffffffffffffffff168160010154826002018360030160009054906101000a900460ff168460030160019054906101000a900473ffffffffffffffffffffffffffffffffffffffff168560040154866005015487600601548860070154868054600181600116156101000203166002900480601f0160208091040260200160405190810160405280929190818152602001828054600181600116156101000203166002900480156106b75780601f1061068c576101008083540402835291602001916106b7565b820191906000526020600020905b81548152906001019060200180831161069a57829003601f168201915b50505050509650995099509950995099509950995099509950509193959799909294969850565b600260009054906101000a900473ffffffffffffffffffffffffffffffffffffffff1673ffffffffffffffffffffffffffffffffffffffff163373ffffffffffffffffffffffffffffffffffffffff1614151561073a57600080fd5b6001600360008373ffffffffffffffffffffffffffffffffffffffff1673ffffffffffffffffffffffffffffffffffffffff16815260200190815260200160002060006101000a81548160ff0219169083151502179055507f1dc56afcb6b7606ba1c8d4d8d3ba9f323357697a3a3f2dd2065919f04b9a894481604051808273ffffffffffffffffffffffffffffffffffffffff1673ffffffffffffffffffffffffffffffffffffffff16815260200191505060405180910390a150565b6000600160003373ffffffffffffffffffffffffffffffffffffffff1673ffffffffffffffffffffffffffffffffffffffff1681526020019081526020016000206001015414151561084957600080fd5b610120604051908101604052803373ffffffffffffffffffffffffffffffffffffffff1681526020018381526020018281526020016001600481111561088b57fe5b8152602001600073ffffffffffffffffffffffffffffffffffffffff1681526020016000815260200160008152602001600081526020016000815250600160003373ffffffffffffffffffffffffffffffffffffffff1673ffffffffffffffffffffffffffffffffffffffff16815260200190815260200160002060008201518160000160006101000a81548173ffffffffffffffffffffffffffffffffffffffff021916908373ffffffffffffffffffffffffffffffffffffffff160217905550602082015181600101556040820151816002019080519060200190610973929190610f89565b5060608201518160030160006101000a81548160ff0219169083600481111561099857fe5b021790555060808201518160030160016101000a81548173ffffffffffffffffffffffffffffffffffffffff021916908373ffffffffffffffffffffffffffffffffffffffff16021790555060a0820151816004015560c0820151816005015560e0820151816006015561010082015181600701559050507fcdfc48bab39e805257a8aefeaca4ebc4a0238e3d1929c685e3ba984d0ae6e9ef600160003373ffffffffffffffffffffffffffffffffffffffff1673ffffffffffffffffffffffffffffffffffffffff16815260200190815260200160002060000160009054906101000a900473ffffffffffffffffffffffffffffffffffffffff16600160003373ffffffffffffffffffffffffffffffffffffffff1673ffffffffffffffffffffffffffffffffffffffff16815260200190815260200160002060010154600160003373ffffffffffffffffffffffffffffffffffffffff1673ffffffffffffffffffffffffffffffffffffffff168152602001908152602001600020600201604051808473ffffffffffffffffffffffffffffffffffffffff1673ffffffffffffffffffffffffffffffffffffffff16815260200183815260200180602001828103825283818154600181600116156101000203166002900481526020019150805460018160011615610100020316600290048015610bda5780601f10610baf57610100808354040283529160200191610bda565b820191906000526020600020905b815481529060010190602001808311610bbd57829003601f168201915b505094505050505060405180910390a15050565b600060011515600360003373ffffffffffffffffffffffffffffffffffffffff1673ffffffffffffffffffffffffffffffffffffffff16815260200190815260200160002060009054906101000a900460ff161515141515610c4f57600080fd5b600160008473ffffffffffffffffffffffffffffffffffffffff1673ffffffffffffffffffffffffffffffffffffffff16815260200190815260200160002090506002600454811515610c9e57fe5b0481600101546005540111151515610cb557600080fd5b60028160030160006101000a81548160ff02191690836004811115610cd657fe5b0217905550338160030160016101000a81548173ffffffffffffffffffffffffffffffffffffffff021916908373ffffffffffffffffffffffffffffffffffffffff160217905550806001015481600401819055504281600501819055506301e13380420181600601819055508181600701819055507f2a2739b1a143745ed1bb646af91335badc687fbb4f4a45ab53ededc8a1a8763b838260030160019054906101000a900473ffffffffffffffffffffffffffffffffffffffff168360060154604051808473ffffffffffffffffffffffffffffffffffffffff1673ffffffffffffffffffffffffffffffffffffffff1681526020018373ffffffffffffffffffffffffffffffffffffffff1673ffffffffffffffffffffffffffffffffffffffff168152602001828152602001935050505060405180910390a1806001015460056000828254019250508190555080600101546000808573ffffffffffffffffffffffffffffffffffffffff1673ffffffffffffffffffffffffffffffffffffffff16815260200190815260200160002060008282540192505081905550505050565b6000346000803373ffffffffffffffffffffffffffffffffffffffff1673ffffffffffffffffffffffffffffffffffffffff168152602001908152602001600020600082825401925050819055507f65d1d1b522c4ff7fbc4d9aed40850a732983d8be21ea116346136e556e7d9e593334604051808373ffffffffffffffffffffffffffffffffffffffff1673ffffffffffffffffffffffffffffffffffffffff1681526020018281526020019250505060405180910390a1346004600082825401925050819055506000803373ffffffffffffffffffffffffffffffffffffffff1673ffffffffffffffffffffffffffffffffffffffff16815260200190815260200160002054905090565b828054600181600116156101000203166002900490600052602060002090601f016020900481019282601f10610fca57805160ff1916838001178555610ff8565b82800160010185558215610ff8579182015b82811115610ff7578251825591602001919060010190610fdc565b5b5090506110059190611009565b5090565b61102b91905b8082111561102757600081600090555060010161100f565b5090565b905600a165627a7a72305820211be7d6246bdfae75d0296b8ddb4d9347163fe386e6b498b16fe5ab94d53fc50029",
  "source": "pragma solidity ^0.4.13;\n\n///@title A \"decentralized\" (not really, not yet) credit union\n///@author @crusyn - Chris Rusyniak\n///@notice use at your own risk :)\ncontract blokUnion {\n  ///STATE VARS\n\n  ///@notice demandAccounts are regular deposit accounts at blokUnion\n  mapping (address => uint) private demandAccounts;\n\n  ///@notice loans are where we store our loans, duh.\n  mapping (address => Loan) private loans;\n\n  ///@notice contract owner\n  address owner;\n\n  ///@notice loanApprovers are authorized to approve and decline loan requests.\n  mapping (address => bool) private loanApprovers;\n\n  struct Loan {\n    address borrower;\n    uint loanAmount;\n    string purpose; //TODO: can use ipfs later, borrower can upload html describing purpose.\n    LoanStatus status;\n    address approver;\n    uint balance;\n    uint issueDate;\n    uint maturityDate;\n    uint apr; //in parts per million\n\n  }\n\n  enum LoanStatus {\n    NoLoan,\n    Requested,\n    Issued,\n    Declined,\n    Repaid\n  }\n\n  uint totalDeposits;\n\n  ///@notice totalOutstandingLoans should never be greater than one half of totalDeposits.\n  //TODO: this should be validated before issuing a loan.\n  uint totalOutstandingLoans;\n\n  ///EVENTS\n\n  event DemandDeposit(address account, uint amount);\n\n  event DemandWithdrawl(address account, uint amount);\n\n  event LoanRequest(address requestor, uint loanAmount, string purpose);\n\n  event LoanIssued(address borrower, address approver, uint maturityDate);\n\n  event LoanDeclined(address borrower, address approver, string reason);\n\n  event LoanPayment(address borrower, uint amount);\n\n  event LoanRepaid(address borrower);\n\n  event ApproverElected(address approver);\n\n  //TODO remove\n  event DebugEvent(address add, address add2, uint a, uint b, bool bo, string c);\n\n  ///MODIFIERS\n\n  modifier onlyOwner() {\n      require (msg.sender == owner);\n      _;\n    }\n\n  modifier onlyApprover() {\n      require (loanApprovers[msg.sender] == true);\n      //emit DebugEvent(msg.sender, 0, 0, 0, loanApprovers[msg.sender], 'approver status');\n      _;\n    }\n\n  ///CONSTRUCTOR\n  constructor() public{\n    owner = msg.sender;\n  }\n\n  ///FUNCTIONS\n  ///@notice deposit ether into the blokUnion\n  ///@return the member's balance\n  function deposit() public payable returns(uint){\n    demandAccounts[msg.sender] += msg.value;\n\n    emit DemandDeposit(msg.sender, msg.value);\n\n    totalDeposits += msg.value;\n\n    return demandAccounts[msg.sender];\n  }\n\n  ///@notice withdraw ether from the blokUnion\n  ///@param _withdrawAmount amount you want to withdraw\n  ///@return the member's remaining balance\n  function withdraw(uint _withdrawAmount) public returns (uint){\n    //make sure there is enough money in the account\n    require(demandAccounts[msg.sender] >= _withdrawAmount);\n\n    //remove the money from their balance\n    demandAccounts[msg.sender] -= _withdrawAmount;\n\n    //pay out the ether\n    msg.sender.transfer(_withdrawAmount);\n\n    totalDeposits -= _withdrawAmount;\n\n    emit DemandWithdrawl(msg.sender, _withdrawAmount);\n\n    return demandAccounts[msg.sender];\n  }\n\n  ///@notice get balance of your demand account\n  ///@return the member's balance\n  function getDemandBalance() public view returns (uint){\n    return demandAccounts[msg.sender];\n  }\n\n  function requestLoan(uint _amount, string _purpose) public {\n    //we only support one loan per account today, make sure the member is not\n    //attempting to request a loan after one was already requested.\n    require(loans[msg.sender].loanAmount == 0);\n\n    //add the loan to the list, set status to Requested\n    loans[msg.sender] = Loan({\n      borrower: msg.sender,\n      loanAmount: _amount,\n      purpose: _purpose,\n      status: LoanStatus.Requested,\n      approver: 0,\n      balance: 0,\n      issueDate: 0,\n      maturityDate: 0,\n      apr: 0\n      });\n\n    //loans[msg.sender] = loan;\n\n    //let the world know that a loan was requested.\n    emit LoanRequest(loans[msg.sender].borrower, loans[msg.sender].loanAmount, loans[msg.sender].purpose);\n  }\n\n  //TODO: implement security: only a loan owner or approver can get loans\n  function getLoan(address _address) public view returns(\n    address borrower,\n    uint loanAmount,\n    string purpose,\n    LoanStatus status,\n    address approver,\n    uint balance,\n    uint issueDate,\n    uint maturityDate,\n    uint apr\n    )\n  {\n    Loan storage loan = loans[_address];\n    return(\n      loan.borrower,\n      loan.loanAmount,\n      loan.purpose, //TODO: can use ipfs later, borrower can upload html describing purpose.\n      loan.status,\n      loan.approver,\n      loan.balance,\n      loan.issueDate,\n      loan.maturityDate,\n      loan.apr\n      );\n  }\n\n  ///@notice elect someone that can approve loans, only the owner can elect an\n  ///approver\n  ///@param _approver address of the person to be elected\n  function electApprover(address _approver) public onlyOwner{\n    loanApprovers[_approver] = true;\n\n    emit ApproverElected(_approver);\n  }\n\n  ///@notice approve a loan, only an approver can approve a loan.\n  ///@param _borrower the borrower you wish to approve.\n  ///@param _rate the rate you assign to the borrower for his/her loan.\n  function approveLoan(address _borrower, uint _rate) public onlyApprover{\n    Loan storage loan = loans[_borrower];\n\n    //make sure totalOutstandingLoans is never be greater than one half of totalDeposits.\n    require(totalOutstandingLoans + loan.loanAmount <= totalDeposits / 2);\n\n    //update loan\n    loan.status = LoanStatus.Issued;\n    loan.approver = msg.sender;\n    loan.balance = loan.loanAmount;\n    loan.issueDate = block.timestamp;\n    loan.maturityDate = block.timestamp + 60*60*24*365;//in seconds since unix epoch;\n    loan.apr = _rate;\n\n\n    emit LoanIssued(_borrower, loan.approver, loan.maturityDate);\n\n    //add to totalOutstandingLoans\n    totalOutstandingLoans += loan.loanAmount;\n\n    //deposit value into borrower's account\n    //this is the magic of a bank.  We are creating money from nothing!!\n    //note... because of fractional reserve banking we can now have more deposits\n    // than ETH in the bank.\n    demandAccounts[_borrower] += loan.loanAmount;\n\n  }\n}\n",
  "sourcePath": "/home/rusty/Code/blokUnion/contracts/blokUnion.sol",
  "compiler": {
    "name": "solc",
    "version": "0.4.23+commit.124ca40d.Emscripten.clang"
  },
  "schemaVersion": "2.0.0",
  "updatedAt": "2018-08-03T15:57:28.223Z"
}