{
  "contractName": "blokUnion",
  "abi": [
    {
      "anonymous": false,
      "inputs": [
        {
          "indexed": false,
          "name": "account",
          "type": "address"
        },
        {
          "indexed": false,
          "name": "amount",
          "type": "uint256"
        }
      ],
      "name": "DemandDeposit",
      "type": "event"
    },
    {
      "anonymous": false,
      "inputs": [
        {
          "indexed": false,
          "name": "account",
          "type": "address"
        },
        {
          "indexed": false,
          "name": "amount",
          "type": "uint256"
        }
      ],
      "name": "DemandWithdrawl",
      "type": "event"
    },
    {
      "anonymous": false,
      "inputs": [
        {
          "indexed": false,
          "name": "requestor",
          "type": "address"
        },
        {
          "indexed": false,
          "name": "loanAmount",
          "type": "uint256"
        },
        {
          "indexed": false,
          "name": "purpose",
          "type": "string"
        }
      ],
      "name": "LoanRequest",
      "type": "event"
    },
    {
      "anonymous": false,
      "inputs": [
        {
          "indexed": false,
          "name": "borrower",
          "type": "address"
        },
        {
          "indexed": false,
          "name": "approver",
          "type": "address"
        },
        {
          "indexed": false,
          "name": "maturityDate",
          "type": "uint256"
        }
      ],
      "name": "LoanIssued",
      "type": "event"
    },
    {
      "anonymous": false,
      "inputs": [
        {
          "indexed": false,
          "name": "borrower",
          "type": "address"
        },
        {
          "indexed": false,
          "name": "approver",
          "type": "address"
        },
        {
          "indexed": false,
          "name": "reason",
          "type": "string"
        }
      ],
      "name": "LoanDeclined",
      "type": "event"
    },
    {
      "anonymous": false,
      "inputs": [
        {
          "indexed": false,
          "name": "borrower",
          "type": "address"
        },
        {
          "indexed": false,
          "name": "amount",
          "type": "uint256"
        }
      ],
      "name": "LoanPayment",
      "type": "event"
    },
    {
      "anonymous": false,
      "inputs": [
        {
          "indexed": false,
          "name": "borrower",
          "type": "address"
        }
      ],
      "name": "LoanRepaid",
      "type": "event"
    },
    {
      "constant": false,
      "inputs": [],
      "name": "deposit",
      "outputs": [
        {
          "name": "",
          "type": "uint256"
        }
      ],
      "payable": true,
      "stateMutability": "payable",
      "type": "function"
    },
    {
      "constant": false,
      "inputs": [
        {
          "name": "_withdrawAmount",
          "type": "uint256"
        }
      ],
      "name": "withdraw",
      "outputs": [
        {
          "name": "",
          "type": "uint256"
        }
      ],
      "payable": false,
      "stateMutability": "nonpayable",
      "type": "function"
    },
    {
      "constant": true,
      "inputs": [],
      "name": "getDemandBalance",
      "outputs": [
        {
          "name": "",
          "type": "uint256"
        }
      ],
      "payable": false,
      "stateMutability": "view",
      "type": "function"
    },
    {
      "constant": false,
      "inputs": [
        {
          "name": "_amount",
          "type": "uint256"
        },
        {
          "name": "_purpose",
          "type": "string"
        }
      ],
      "name": "requestLoan",
      "outputs": [],
      "payable": false,
      "stateMutability": "nonpayable",
      "type": "function"
    },
    {
      "constant": true,
      "inputs": [
        {
          "name": "_address",
          "type": "address"
        }
      ],
      "name": "getLoan",
      "outputs": [
        {
          "name": "",
          "type": "address"
        },
        {
          "name": "",
          "type": "uint256"
        },
        {
          "name": "",
          "type": "string"
        },
        {
          "name": "",
          "type": "uint8"
        },
        {
          "name": "",
          "type": "address"
        },
        {
          "name": "",
          "type": "uint256"
        },
        {
          "name": "",
          "type": "uint256"
        },
        {
          "name": "",
          "type": "uint256"
        },
        {
          "name": "",
          "type": "uint256"
        }
      ],
      "payable": false,
      "stateMutability": "view",
      "type": "function"
    }
  ],
  "bytecode": "0x608060405234801561001057600080fd5b50610b86806100206000396000f30060806040526004361061006d576000357c0100000000000000000000000000000000000000000000000000000000900463ffffffff168063239fbce7146100725780632e1a7d4d1461009d57806333481fc9146100de5780636c79e16714610238578063d0e30db0146102ab575b600080fd5b34801561007e57600080fd5b506100876102c9565b6040518082815260200191505060405180910390f35b3480156100a957600080fd5b506100c86004803603810190808035906020019092919050505061030f565b6040518082815260200191505060405180910390f35b3480156100ea57600080fd5b5061011f600480360381019080803573ffffffffffffffffffffffffffffffffffffffff1690602001909291905050506104a2565b604051808a73ffffffffffffffffffffffffffffffffffffffff1673ffffffffffffffffffffffffffffffffffffffff1681526020018981526020018060200188600481111561016b57fe5b60ff1681526020018773ffffffffffffffffffffffffffffffffffffffff1673ffffffffffffffffffffffffffffffffffffffff168152602001868152602001858152602001848152602001838152602001828103825289818151815260200191508051906020019080838360005b838110156101f55780820151818401526020810190506101da565b50505050905090810190601f1680156102225780820380516001836020036101000a031916815260200191505b509a505050505050505050505060405180910390f35b34801561024457600080fd5b506102a960048036038101908080359060200190929190803590602001908201803590602001908080601f0160208091040260200160405190810160405280939291908181526020018383808284378201915050505050509192919290505050610628565b005b6102b3610934565b6040518082815260200191505060405180910390f35b60008060003373ffffffffffffffffffffffffffffffffffffffff1673ffffffffffffffffffffffffffffffffffffffff16815260200190815260200160002054905090565b6000816000803373ffffffffffffffffffffffffffffffffffffffff1673ffffffffffffffffffffffffffffffffffffffff168152602001908152602001600020541015151561035e57600080fd5b816000803373ffffffffffffffffffffffffffffffffffffffff1673ffffffffffffffffffffffffffffffffffffffff168152602001908152602001600020600082825403925050819055503373ffffffffffffffffffffffffffffffffffffffff166108fc839081150290604051600060405180830381858888f193505050501580156103f0573d6000803e3d6000fd5b507ffa1120df9f23b6c6e222cdc3732928533d45ac27a8c0834eab9d378fa4121cd03383604051808373ffffffffffffffffffffffffffffffffffffffff1673ffffffffffffffffffffffffffffffffffffffff1681526020018281526020019250505060405180910390a16000803373ffffffffffffffffffffffffffffffffffffffff1673ffffffffffffffffffffffffffffffffffffffff168152602001908152602001600020549050919050565b60008060606000806000806000806000600160008c73ffffffffffffffffffffffffffffffffffffffff1673ffffffffffffffffffffffffffffffffffffffff16815260200190815260200160002090508060000160009054906101000a900473ffffffffffffffffffffffffffffffffffffffff168160010154826002018360030160009054906101000a900460ff168460030160019054906101000a900473ffffffffffffffffffffffffffffffffffffffff168560040154866005015487600601548860070154868054600181600116156101000203166002900480601f0160208091040260200160405190810160405280929190818152602001828054600181600116156101000203166002900480156106015780601f106105d657610100808354040283529160200191610601565b820191906000526020600020905b8154815290600101906020018083116105e457829003601f168201915b50505050509650995099509950995099509950995099509950509193959799909294969850565b610630610a31565b6000600160003373ffffffffffffffffffffffffffffffffffffffff1673ffffffffffffffffffffffffffffffffffffffff1681526020019081526020016000206001015414151561068157600080fd5b610120604051908101604052803373ffffffffffffffffffffffffffffffffffffffff168152602001848152602001838152602001600160048111156106c357fe5b8152602001600073ffffffffffffffffffffffffffffffffffffffff1681526020016000815260200160008152602001600081526020016000815250905080600160003373ffffffffffffffffffffffffffffffffffffffff1673ffffffffffffffffffffffffffffffffffffffff16815260200190815260200160002060008201518160000160006101000a81548173ffffffffffffffffffffffffffffffffffffffff021916908373ffffffffffffffffffffffffffffffffffffffff1602179055506020820151816001015560408201518160020190805190602001906107ae929190610ab5565b5060608201518160030160006101000a81548160ff021916908360048111156107d357fe5b021790555060808201518160030160016101000a81548173ffffffffffffffffffffffffffffffffffffffff021916908373ffffffffffffffffffffffffffffffffffffffff16021790555060a0820151816004015560c0820151816005015560e0820151816006015561010082015181600701559050507fcdfc48bab39e805257a8aefeaca4ebc4a0238e3d1929c685e3ba984d0ae6e9ef816000015182602001518360400151604051808473ffffffffffffffffffffffffffffffffffffffff1673ffffffffffffffffffffffffffffffffffffffff16815260200183815260200180602001828103825283818151815260200191508051906020019080838360005b838110156108f35780820151818401526020810190506108d8565b50505050905090810190601f1680156109205780820380516001836020036101000a031916815260200191505b5094505050505060405180910390a1505050565b6000346000803373ffffffffffffffffffffffffffffffffffffffff1673ffffffffffffffffffffffffffffffffffffffff168152602001908152602001600020600082825401925050819055507f65d1d1b522c4ff7fbc4d9aed40850a732983d8be21ea116346136e556e7d9e593334604051808373ffffffffffffffffffffffffffffffffffffffff1673ffffffffffffffffffffffffffffffffffffffff1681526020018281526020019250505060405180910390a16000803373ffffffffffffffffffffffffffffffffffffffff1673ffffffffffffffffffffffffffffffffffffffff16815260200190815260200160002054905090565b61012060405190810160405280600073ffffffffffffffffffffffffffffffffffffffff168152602001600081526020016060815260200160006004811115610a7657fe5b8152602001600073ffffffffffffffffffffffffffffffffffffffff168152602001600081526020016000815260200160008152602001600081525090565b828054600181600116156101000203166002900490600052602060002090601f016020900481019282601f10610af657805160ff1916838001178555610b24565b82800160010185558215610b24579182015b82811115610b23578251825591602001919060010190610b08565b5b509050610b319190610b35565b5090565b610b5791905b80821115610b53576000816000905550600101610b3b565b5090565b905600a165627a7a72305820f5310b89e82485e641102337eabcb3f86ff7d3d0ffe518dd6fb0f2a8f44e267d0029",
  "source": "pragma solidity ^0.4.13;\n\n///@title A \"decentralized\" (not really, not yet) credit union\n///@author @crusyn - Chris Rusyniak\n///@notice use at your own risk :)\ncontract blokUnion {\n  ///STATE VARS\n\n  ///@notice demandAccounts are regular deposit accounts at blokUnion\n  mapping (address => uint) private demandAccounts;\n\n  ///@notice loans are where we store our loans, duh.\n  mapping (address => Loan) private loans;\n\n  ///@notice loanApprovers are authorized to approve and decline loan requests.\n  address[] loanApprovers;\n\n  struct Loan {\n    address borrower;\n    uint loanAmount;\n    string purpose; //TODO: can use ipfs later, borrower can upload html describing purpose.\n    LoanStatus status;\n    address approver;\n    uint balance;\n    uint issueDate;\n    uint maturityDate;\n    uint apr; //in parts per million\n\n  }\n\n  enum LoanStatus {\n    NoLoan,\n    Requested,\n    Issued,\n    Declined,\n    Repaid\n  }\n\n  uint totalDeposits;\n\n  ///@notice totalOutstandingLoans should never be greater than one half of totalDeposits.\n  //TODO: this should be validated before issuing a loan.\n  uint totalOutstandingLoans;\n\n  ///EVENTS\n\n  event DemandDeposit(address account, uint amount);\n\n  event DemandWithdrawl(address account, uint amount);\n\n  event LoanRequest(address requestor, uint loanAmount, string purpose);\n\n  event LoanIssued(address borrower, address approver, uint maturityDate);\n\n  event LoanDeclined(address borrower, address approver, string reason);\n\n  event LoanPayment(address borrower, uint amount);\n\n  event LoanRepaid(address borrower);\n\n  ///FUNCTIONS\n  ///@notice deposit ether into the blokUnion\n  ///@return the member's balance\n  function deposit() public payable returns(uint){\n    demandAccounts[msg.sender] += msg.value;\n\n    emit DemandDeposit(msg.sender, msg.value);\n\n    return demandAccounts[msg.sender];\n  }\n\n  ///@notice withdraw ether from the blokUnion\n  ///@param _withdrawAmount amount you want to withdraw\n  ///@return the member's remaining balance\n  function withdraw(uint _withdrawAmount) public returns (uint){\n    //make sure there is enough money in the account\n    require(demandAccounts[msg.sender] >= _withdrawAmount);\n\n    //remove the money from their balance\n    demandAccounts[msg.sender] -= _withdrawAmount;\n\n    //pay out the ether\n    msg.sender.transfer(_withdrawAmount);\n\n    emit DemandWithdrawl(msg.sender, _withdrawAmount);\n\n    return demandAccounts[msg.sender];\n  }\n\n  ///@notice get balance of your demand account\n  ///@return the member's balance\n  function getDemandBalance() public view returns (uint){\n    return demandAccounts[msg.sender];\n  }\n\n  function requestLoan(uint _amount, string _purpose) public {\n    //we only support one loan per account today, make sure the member is not\n    //attempting to request a loan after one was already requested.\n    require(loans[msg.sender].loanAmount == 0);\n\n    //add the loan to the list, set status to Requested\n    Loan memory loan = Loan({\n      borrower: msg.sender,\n      loanAmount: _amount,\n      purpose: _purpose,\n      status: LoanStatus.Requested,\n      approver: 0,\n      balance: 0,\n      issueDate: 0,\n      maturityDate: 0,\n      apr: 0\n      });\n\n    loans[msg.sender] = loan;\n\n    //let the world know that a loan was requested.\n    emit LoanRequest(loan.borrower, loan.loanAmount, loan.purpose);\n  }\n\n  //TODO: implement security: only a loan owner or approver can get loans\n  function getLoan(address _address) public view returns(\n    address,\n    uint,\n    string,\n    LoanStatus,\n    address,\n    uint,\n    uint,\n    uint,\n    uint\n    )\n  {\n    Loan storage loan = loans[_address];\n    return(\n      loan.borrower,\n      loan.loanAmount,\n      loan.purpose, //TODO: can use ipfs later, borrower can upload html describing purpose.\n      loan.status,\n      loan.approver,\n      loan.balance,\n      loan.issueDate,\n      loan.maturityDate,\n      loan.apr\n      );\n  }\n}\n",
  "sourcePath": "/home/rusty/Code/blokUnion/contracts/blokUnion.sol",
  "compiler": {
    "name": "solc",
    "version": "0.4.23+commit.124ca40d.Emscripten.clang"
  },
  "schemaVersion": "2.0.0",
  "updatedAt": "2018-07-25T15:47:33.290Z"
}