{
  "contractName": "liquidityRules",
  "abi": [
    {
      "constant": true,
      "inputs": [
        {
          "name": "_totalDeposits",
          "type": "uint256"
        },
        {
          "name": "_totalPrincipalOutstanding",
          "type": "uint256"
        },
        {
          "name": "_newLoanAmt",
          "type": "uint256"
        }
      ],
      "name": "isUnionLiquid",
      "outputs": [
        {
          "name": "",
          "type": "bool"
        }
      ],
      "payable": false,
      "stateMutability": "pure",
      "type": "function"
    }
  ],
  "bytecode": "0x60ed61002f600b82828239805160001a6073146000811461001f57610021565bfe5b5030600052607381538281f30073000000000000000000000000000000000000000030146080604052600436106056576000357c0100000000000000000000000000000000000000000000000000000000900463ffffffff1680632ac6804a14605b575b600080fd5b608b60048036038101908080359060200190929190803590602001909291908035906020019092919050505060a5565b604051808215151515815260200191505060405180910390f35b600060028481151560b257fe5b048284011115905093925050505600a165627a7a723058208ead9af662a0f18ea9316f37e093fdbd9698412f7f9175e8333727ebd57b2bb70029",
  "source": "pragma solidity ^0.4.13;\n\nlibrary liquidityRules {\n  ///@notice totalOutstandingLoans should never be greater than one half of totalDeposits\n  ///@dev used to determine if a new loan is permitted\n  ///@param _totalDeposits total deposits in ETH at the union\n  ///@param _totalPrincipalOutstanding total principal outstanding at the union\n  ///@param _newLoanAmt proposed loan amount\n  ///@return true if it's ok to issue the loan\n  function isUnionLiquid(uint _totalDeposits, uint _totalPrincipalOutstanding, uint _newLoanAmt) pure public returns (bool){\n    return _totalPrincipalOutstanding + _newLoanAmt <= _totalDeposits / 2;\n  }\n}\n\n///@title A \"decentralized\" (not really, not yet) credit union\n///@author @crusyn - Chris Rusyniak\n///@notice use at your own risk :)\ncontract blokUnion {\n  ///STATE VARS\n\n  bool public contractOn = true;\n\n  ///@notice demandAccounts are regular deposit accounts at blokUnion\n  mapping (address => uint) private demandAccounts;\n\n  ///@notice loans are where we store our loans, duh.\n  mapping (address => Loan) private loans;\n\n  ///@notice contract owner\n  address owner;\n\n  ///@notice loanApprovers are authorized to approve and decline loan requests.\n  mapping (address => bool) private loanApprovers;\n\n  ///@notice this is the key struct, describes a loan, duh\n  struct Loan {\n    address borrower;\n    uint loanAmount; //Is zero until loan is requested\n    string purpose; //reason for requesting the loans\n    //TODO: can use ipfs later, borrower can upload html describing purpose.\n    LoanStatus status; //status of loan, see LoanStatus struct\n    address approver; //the address of the user that approved this loan\n    uint balance; //the principal + accrued interest - repayments or outstanding amount owed\n    uint issueDate; //when the loan was appoved/issued\n    uint maturityDate; //when the loan should be fully repaid by\n    uint apr; //interest rate in parts per million\n\n  }\n\n  ///@notice this defines the overall workflow\n  enum LoanStatus {\n    NoLoan, //should never happen\n    Requested, //after requestLoan()\n    Issued, //after approveLoan()\n    Declined, //unimplemented\n    Repaid //unimplemented\n  }\n\n  ///@notice this is the total deposits at a current time.  Due to the magic\n  ///or fractional reserve banking this can actually be > that the total ETH\n  ///in the contract.\n  uint totalDeposits;\n\n  ///@notice totalOutstandingLoans should never be greater than one half of totalDeposits\n  uint totalOutstandingLoans;\n\n  ///EVENTS\n\n  event DemandDeposit(address account, uint amount);\n\n  event DemandWithdrawl(address account, uint amount);\n\n  event LoanRequest(address requestor, uint loanAmount, string purpose);\n\n  event LoanIssued(address borrower, address approver, uint maturityDate);\n\n  event LoanDeclined(address borrower, address approver, string reason);\n\n  event LoanPayment(address borrower, uint amount);\n\n  event LoanRepaid(address borrower);\n\n  event ApproverElected(address approver);\n\n  ///MODIFIERS\n\n  modifier onlyOwner() {\n      require (msg.sender == owner);\n      _;\n    }\n\n  modifier onlyApprover() {\n      require (loanApprovers[msg.sender] == true);\n      //emit DebugEvent(msg.sender, 0, 0, 0, loanApprovers[msg.sender], 'approver status');\n      _;\n    }\n\n  modifier contractIsOn(){\n    require(contractOn); _;\n  }\n\n  ///CONSTRUCTOR\n  constructor() public{\n    owner = msg.sender;\n  }\n\n  ///@notice trips circuit breaker, will turn off all functions in this contract\n  ///@dev only the contract owner can exec\n  //TODO: need to write tests for this\n  function turnOffContract() public onlyOwner{\n    contractOn = false;\n  }\n\n  ///@notice releases circuit breaker, will turn off all functions in this contract\n  ///@dev only the contract owner can exec\n  //TODO: need to write tests for this\n  function turnOnContract() public onlyOwner{\n    contractOn = true;\n  }\n\n  ///@notice closes the blokUnion and sends all ETH to owner\n  ///@dev only the contract owner can exec\n  //TODO: need to write tests for this\n  function kill() onlyOwner public{\n    selfdestruct(owner);\n  }\n\n  ///FUNCTIONS\n  ///@notice deposit ether into the blokUnion\n  ///@return the member's balance\n  function deposit() public payable contractIsOn returns(uint){\n    //overflow protect\n    require(demandAccounts[msg.sender] + msg.value > demandAccounts[msg.sender]);\n\n    demandAccounts[msg.sender] += msg.value;\n\n    emit DemandDeposit(msg.sender, msg.value);\n\n    totalDeposits += msg.value;\n\n    return demandAccounts[msg.sender];\n  }\n\n  ///@notice withdraw ether from the blokUnion\n  ///@param _withdrawAmount amount you want to withdraw\n  ///@return the member's remaining balance\n  function withdraw(uint _withdrawAmount) public contractIsOn returns (uint){\n    //make sure there is enough money in the account\n    require(demandAccounts[msg.sender] >= _withdrawAmount);\n\n    //underflow protection\n    require(demandAccounts[msg.sender] - _withdrawAmount < demandAccounts[msg.sender]);\n\n    //remove the money from their balance\n    demandAccounts[msg.sender] -= _withdrawAmount;\n\n    //pay out the ether\n    msg.sender.transfer(_withdrawAmount);\n\n    totalDeposits -= _withdrawAmount;\n\n    emit DemandWithdrawl(msg.sender, _withdrawAmount);\n\n    return demandAccounts[msg.sender];\n  }\n\n  ///@notice get balance of your demand account\n  ///@return the member's balance\n  function getDemandBalance() public view contractIsOn returns (uint){\n    return demandAccounts[msg.sender];\n  }\n\n  ///@notice use this function to request a loan.\n  ///@dev today we only support one loan per account.  This is the first step\n  ///in the lending workflow.\n  ///@param _amount Amount being requested\n  ///@param _purpose The reason for the loan, this will be used by approvers to\n  ///determine if the loan should be approved & issued\n  function requestLoan(uint _amount, string _purpose) public contractIsOn {\n    //we only support one loan per account today, make sure the member is not\n    //attempting to request a loan after one was already requested.\n    require(loans[msg.sender].loanAmount == 0);\n\n    //add the loan to the list, set status to Requested\n    loans[msg.sender] = Loan({\n      borrower: msg.sender,\n      loanAmount: _amount,\n      purpose: _purpose,\n      status: LoanStatus.Requested,\n      approver: 0,\n      balance: 0,\n      issueDate: 0,\n      maturityDate: 0,\n      apr: 0\n      });\n\n    //loans[msg.sender] = loan;\n\n    //let the world know that a loan was requested.\n    emit LoanRequest(loans[msg.sender].borrower, loans[msg.sender].loanAmount, loans[msg.sender].purpose);\n  }\n\n  ///@notice used to be able to examine loans\n  ///@dev relatively harmless, but we should make this accessible only by owners\n  ///and/or approvers\n  ///@param _address loan's borrower address\n  ///@return essentially everything in the loan struct\n  //TODO: implement security: only a loan owner or approver can get loans\n  function getLoan(address _address) public contractIsOn view returns(\n    address borrower,\n    uint loanAmount,\n    string purpose,\n    LoanStatus status,\n    address approver,\n    uint balance,\n    uint issueDate,\n    uint maturityDate,\n    uint apr\n    )\n  {\n    Loan storage loan = loans[_address];\n    return(\n      loan.borrower,\n      loan.loanAmount,\n      loan.purpose, //TODO: can use ipfs later, borrower can upload html describing purpose.\n      loan.status,\n      loan.approver,\n      loan.balance,\n      loan.issueDate,\n      loan.maturityDate,\n      loan.apr\n      );\n  }\n\n  ///@notice elect someone that can approve loans, only the owner can elect an\n  ///approver\n  ///@param _approver address of the person to be elected\n  function electApprover(address _approver) public contractIsOn onlyOwner{\n    loanApprovers[_approver] = true;\n\n    emit ApproverElected(_approver);\n  }\n\n  ///@notice approve a loan, only an approver can approve a loan.\n  ///@param _borrower the borrower you wish to approve.\n  ///@param _rate the rate you assign to the borrower for his/her loan.\n  function approveLoan(address _borrower, uint _rate) public onlyApprover{\n    Loan storage loan = loans[_borrower];\n\n    //make sure totalOutstandingLoans is never be greater than one half of totalDeposits.\n    require(liquidityRules.isUnionLiquid(totalDeposits, totalOutstandingLoans, loan.loanAmount));\n\n    //protect against overflow\n    require(demandAccounts[_borrower] + loan.loanAmount > demandAccounts[_borrower]);\n\n    require(loan.status == LoanStatus.Requested);\n\n    //update loan\n    loan.status = LoanStatus.Issued;\n    loan.approver = msg.sender;\n    loan.balance = loan.loanAmount;\n    loan.issueDate = block.timestamp;\n    loan.maturityDate = block.timestamp + 60*60*24*365;//in seconds since unix epoch;\n    loan.apr = _rate;\n\n\n    emit LoanIssued(_borrower, loan.approver, loan.maturityDate);\n\n    //add to totalOutstandingLoans\n    totalOutstandingLoans += loan.loanAmount;\n\n    //deposit value into borrower's account\n    //this is the magic of a bank.  We are creating money from nothing!!\n    //note... because of fractional reserve banking we can now have more deposits\n    // than ETH in the bank.\n    demandAccounts[_borrower] += loan.loanAmount;\n\n  }\n}\n",
  "sourcePath": "/Users/chrisrusyniak/Code/blokUnion/contracts/blokUnion.sol",
  "compiler": {
    "name": "solc",
    "version": "0.4.24+commit.e67f0147.Emscripten.clang"
  },
  "schemaVersion": "2.0.1",
  "updatedAt": "2018-08-24T18:49:58.488Z"
}